:020000040800F2
:10000000E054002085290008390B00083D0B00084A
:10001000410B0008450B0008490B000800000000D8
:100020000000000000000000000000004D0B000870
:100030004F0B000800000000DF2C0008432C0008D4
:10004000A9290008A9290008A9290008A929000848
:10005000A9290008A9290008A9290008A929000838
:10006000A9290008A9290008A9290008A929000828
:10007000A9290008A9290008A9290008A929000818
:10008000A9290008A9290008A9290008A929000808
:10009000ED070008A9290008A9290008A9290008D6
:1000A000A9290008A9080008A9290008A929000809
:1000B0006F0800083F09000871090008A929000815
:1000C000A9290008A9290008A9290008A9290008C8
:1000D000A9290008A9290008A3090008A9290008DE
:1000E000A9290008A9290008A9290008A9290008A8
:1000F000DB080008A9290008A9290008A929000887
:10010000A9290008A92900080D090008A929000843
:10011000A9290008A9290008A9290008A929000877
:10012000A9290008A9290008A9290008A929000867
:10013000A9290008A9290008A9290008A929000857
:10014000A9290008A9290008A9290008A929000847
:10015000A9290008A9290008A9290008A929000837
:10016000A9290008A9290008A9290008A929000827
:10017000A9290008A9290008A9290008A929000817
:10018000A9290008A929000800F002F800F03CF8AD
:100190000AA090E8000C82448344AAF10107DA45E2
:1001A00001D100F031F8AFF2090EBAE80F0013F0F8
:1001B000010F18BFFB1A43F001031847C49A00004F
:1001C000E49A0000103A24BF78C878C1FAD85207E0
:1001D00024BF30C830C144BF04680C6070470000C1
:1001E0000023002400250026103A28BF78C1FBD840
:1001F000520728BF30C148BF0B6070471FB509F0D8
:100200004CFB1FBD10B510BD08F070FA1146FFF78A
:10021000F5FF00F01DF808F08EFA03B4FFF7F2FFC7
:1002200003BC08F08FFA0000184800686421B0FB96
:10023000F1F4204602F016FD03F0FAFA01F05FFC3B
:1002400000BF00231A460121184605F009FCF8E713
:1002500010B586B000BF02F069FD03F0E4F9032099
:1002600000214FF480720A4BCDE90132CDE9031031
:100270000A200346074A0090074805F065F804463F
:1002800003F0BEFA002006B010BD000050000020B0
:10029000DC000020D8040020290200082DE9FF41DD
:1002A00004460D4616461F46DDF82880F949601AB7
:1002B0008C4270D01ADCF849A4EB01008C426CD05F
:1002C0000ADCB4F1804F4ED0F4482044002852D0CC
:1002D000B0F5806F71D156E0B0F5806F65D0B0F5A4
:1002E000006F6CD0B0F5406FF4D170E0B0F5923F84
:1002F00021D009DCB0F5806F7AD0B0F5644F0AD018
:10030000B0F5684F7CD10EE0B0F5943F1BD0B0F54E
:10031000963F75D11FE00121084606F0CBFA19205F
:100320008DF800006DE00121022006F0C3FA2C20B8
:100330008DF8000065E00121080406F0BBFA1820E2
:100340008DF800005DE00121192006F0B3FA2C20A1
:100350008DF8000055E00121880406F0ABFA1A2060
:100360008DF800004DE00121084606F092FA1C20AD
:100370008DF8000045E00121022006F08AFA1D20D8
:100380008DF800003DE00121042006F082FA1E20D5
:100390008DF8000035E023E0FFE70121082006F09A
:1003A00078FA32208DF800002BE00121102006F0B1
:1003B00070FA36208DF8000023E021E0FFE70121EC
:1003C000202006F066FA37208DF8000019E00121A0
:1003D000402006F05EFA2B208DF8000011E007E0C7
:1003E0000121802006F055FA2C208DF8000008E04D
:1003F0000121080206F04DFA2D208DF8000000E0E2
:1004000000BF00BF0295ADF804600020ADF80C00FD
:10041000ADF8060001A9204606F063FC0121204644
:1004200007F028F901221146204607F0FBF8F8B240
:100430008DF8010008F0FF008DF8020001208DF812
:100440000300684606F035FB0121204606F0D2FC89
:10045000BDE8FF81FEB504460D462E468D49601A63
:100460008C4270D01ADC8C49A4EB01008C426CD019
:100470000ADCB4F1804F4ED088482044002852D086
:10048000B0F5806F71D156E0B0F5806F65D0B0F5F2
:10049000006F6CD0B0F5406FF4D170E0B0F5923FD2
:1004A00021D009DCB0F5806F7AD0B0F5644F0AD066
:1004B000B0F5684F7CD10EE0B0F5943F1BD0B0F59D
:1004C000963F75D11FE00121084606F0F3F9A820F8
:1004D000ADF800006DE00121022006F0EBF9A82044
:1004E000ADF8000065E00121080406F0E3F9A8205A
:1004F000ADF800005DE00121480406F0DBF9A8201A
:10050000ADF8000055E00121880406F0D3F9A820D9
:10051000ADF800004DE00121084606F0BAF954207C
:10052000ADF8000045E00121022006F0B2F95420A8
:10053000ADF800003DE00121042006F0AAF95420A6
:10054000ADF8000035E023E0FFE70121082006F0C8
:10055000A0F95420ADF800002BE00121102006F096
:1005600098F95420ADF8000023E021E0FFE70121D5
:10057000202006F08EF95420ADF8000019E001218A
:10058000402006F086F95420ADF8000011E007E0A5
:100590000121802006F07DF95420ADF8000008E02C
:1005A0000121080206F075F95420ADF8000000E0C2
:1005B00000BF00BF012001900020ADF80800ADF899
:1005C00002006946204606F08CFB0121204606F019
:1005D00011FC4FF6FF70811B204606F0CBFB03E0B9
:1005E000204606F0CBFB86B24FF6FF708642F7DB63
:1005F0000021204606F0FEFBFEBDFEB504460D467A
:1006000000262E462349601A8C4276D01ADC2249F5
:10061000A4EB01008C427CD00ADCB4F1804F5AD0AC
:100620001E48204400285FD0B0F5806F67D167E096
:10063000B0F5806F79D0B0F5006F7FD0B0F5406F26
:10064000F4D184E0B0F5923F2AD009DCB0F5806F98
:100650006AD0B0F5644F0AD0B0F5684F4FD10FE0C3
:10066000B0F5943F25D0B0F5963F48D12AE001215E
:10067000084606F01FF944F2A010ADF8000082E031
:100680000121022006F016F944F2A010ADF8000096
:1006900079E00000001C0040000C004000FCFFBF9F
:1006A0000121080406F006F944F2A010ADF800009C
:1006B00069E00121480406F0FDF844F2A010ADF80D
:1006C000000060E00121880406F0F4F844F2A01074
:1006D000ADF8000057E00121084606F0DAF842F2D2
:1006E000D000ADF800004EE00121022006F0D1F864
:1006F00042F2D000ADF8000045E031E009E041E011
:100700000121042006F0C5F842F2D000ADF8000047
:1007100039E00121082006F0BCF842F2D000ADF823
:10072000000030E001E009E023E00121102006F0A4
:10073000B0F842F2D000ADF8000024E00121202002
:1007400006F0A7F842F2D000ADF800001BE001214E
:10075000402006F09EF842F2D000ADF8000012E012
:100760000121802006F095F842F2D000ADF800009B
:1007700009E00121080206F08CF842F2D000ADF841
:10078000000000E000BF00BF012001900020ADF894
:100790000800ADF802006946204606F0A2FA4FF6BE
:1007A000FF70811B204606F0E5FA0121204606F085
:1007B00021FB03E0204606F0E1FA06464FF6FF7003
:1007C0008642F7D30021204606F014FBFEBD70B52B
:1007D00006460C46002500BF04E00A213046FFF71C
:1007E0000CFF6D1CA542F8D370BD000010B502F0DF
:1007F00055FA0446D6480078401CD5490870204672
:1008000002F050FA0823D34AD349D44801F0C0F883
:10081000D349D24807F011FED149491CCF4807F00F
:100820000CFECF49C91CCD4807F007FECD49CB4887
:1008300007F003FECC49C94807F0FFFDCB49C74884
:1008400007F0FBFDC9490831C44807F0F6FDC84967
:10085000C24807F0F2FDC749C04807F0EEFDC549A0
:100860000831BE4807F0E9FD02F007FF10BD10B5E2
:1008700002F014FA0446B6480078401CB4490870E7
:10088000204602F00FFA0121880706F0E2FE012857
:1008900007D1B948006804F0A0FB0121880706F0E1
:1008A000E9FE02F0EAFE10BD10B502F0F7F90446C9
:1008B000A7480078401CA6490870204602F0F2F9CB
:1008C0000121AE4806F0C5FE012803D10121AB4845
:1008D00006F0D0FE02F0D1FE10BD10B502F0DEF938
:1008E00004469B480078401C99490870204602F055
:1008F000D9F90121A24806F0ACFE012803D101215B
:100900009F4806F0B7FE02F0B8FE10BD10B502F029
:10091000C5F904468E480078401C8D490870204671
:1009200002F0C0F90121974806F093FE012803D197
:100930000121944806F09EFE02F09FFE10BD10B506
:1009400002F0ACF9044682480078401C80490870E7
:10095000204602F0A7F901218B4806F07AFE012813
:1009600003D10121884806F085FE02F086FE10BD05
:1009700010B502F093F9044675480078401C74499C
:100980000870204602F08EF90121804806F061FED1
:10099000012803D101217D4806F06CFE02F06DFEB6
:1009A00010BD10B502F07AF9044669480078401C81
:1009B00067490870204602F075F940F225517448E5
:1009C00007F00DF901287DD140F22551704807F05C
:1009D0003DF96F4807F057F86E4908706E48007887
:1009E000052870D2DFE800F00311263D4B0069486E
:1009F00000780D2805D168480078401C66490870C9
:100A000002E000206449087092E0624800780A28F9
:100A100008D10020614908705F480078401C5E4999
:100A2000087006E05B4800780D2802D000205A4983
:100A300008707DE0574800785949584A1278885420
:100A400056480078401C5549087008460078182818
:100A500006DB0020087050480078401C4E490870A2
:100A600066E04C4800780A2805D14B480078401CC5
:100A70004949087002E000204749087058E045489D
:100A800000780D284CD1464890ED000ADFED450A6C
:100A900030EE200A444880ED000A90ED000ADFEDB8
:100AA000430AB4EEE00AF1EE10FA07DD90ED000A19
:100AB000DFED3F0A30EE600A80ED000A3A4890ED23
:100AC000000A01E035E02FE001F018FE344890ED17
:100AD000010A384880ED000A314890ED020A364894
:100AE00080ED000A2E4890ED030AB1EE400A33482B
:100AF00080ED000A90ED000A01F010FE284890ED0C
:100B0000040AB1EE400A2E4880ED000A90ED000A7A
:100B100001F014FE224890ED050A2A4880ED000AF3
:100B200000201D49087003E000201B49087000BF29
:100B300000BF02F0A2FD10BD00BFFEE700BFFEE750
:100B400000BFFEE700BFFEE700BFFEE7704770474B
:100B500085000020200000202800002000640040C4
:100B60000100F0107000F0300300001208000032A5
:100B70000300001408000034300000200000014091
:100B800000040140000C0040000400400008004048
:100B9000004400402C0000202D0000202E000020EA
:100BA000DC1800200000B44208000020000034439C
:100BB0000000B4430C0000201000002014000020AE
:100BC000180000201C00002010B588B00446012148
:100BD000022005F02BFE0121102005F06BFE0722FC
:100BE0000621D94805F067FC07221146D64805F0D2
:100BF00062FCC020069002208DF81C008DF81D00BC
:100C000000208DF81E0001208DF81F0006A9CE4897
:100C100005F0C6FB02940020ADF80C00ADF80E0004
:100C2000ADF81000ADF814000C20ADF8120002A9C8
:100C3000C64806F049FE0121C44806F0CDFE402119
:100C4000C24806F0F4FE012240F22551BF4806F0EA
:100C5000A1FF25208DF8040000208DF8050001205B
:100C60008DF806008DF8070001A805F022FF08B0F6
:100C700010BD10B588B0044604940020ADF81400EF
:100C8000ADF81600ADF81800ADF81C000C20ADF85A
:100C90001A000121082005F0C9FD0121480405F0D2
:100CA000F8FD07220521AA4805F005FC07220621C8
:100CB000A74805F000FC00208DF80A0001208DF8FF
:100CC0000B0002208DF808002020019002208DF8F2
:100CD000090001A99E4805F063FB02208DF8080079
:100CE0004020019001A99A4805F05AFB04A99948AF
:100CF00006F0EAFD26208DF80C0001208DF80F008B
:100D000000208DF80D008DF80E0003A805F0D1FE2F
:100D1000012240F225518F4806F03CFF01218D4809
:100D200006F05AFE08B010BD10B588B00446049411
:100D30000020ADF81400ADF81600ADF81800ADF8BD
:100D40001C000C20ADF81A000121042005F06EFDF6
:100D50000121880405F09DFD07220A217E4805F047
:100D6000AAFB07220B217C4805F0A5FB00208DF88B
:100D70000A0001208DF80B0002208DF808004002C7
:100D8000019002208DF8090001A9734805F008FBC5
:100D900002208DF808008002019001A96E4805F03C
:100DA000FFFA04A96D4806F08FFD27208DF80C008E
:100DB00001208DF80F0000208DF80D008DF80E0039
:100DC00003A805F076FE012240F22551634806F0A3
:100DD000E1FE0121614806F0FFFD08B010BDF0B54D
:100DE00003460D461646002729460A2E03D000204A
:100DF00008702846F0BD33B9302001F8010B0020FF
:100E000008702846F6E7002B03DA2D2001F8010BC5
:100E10005B4242F210720DE093FBF2F404B937B179
:100E200004F1300001F8010B04FB123301270A2002
:100E300092FBF0F2002AEFDC002008702846D9E788
:100E40000FB470B586B006460CA8019073E00B98FD
:100E500000785C281CD10B98401C0B9000786E2801
:100E600009D072280FD10D21304606F0F6FD0B98FF
:100E7000401C0B900BE00A21304606F0EEFD0B986B
:100E8000401C0B9003E00B98401C0B9000BF4BE004
:100E90000B980078252840D10B98401C0B900078C7
:100EA000642818D0732833D1019810C801900BE042
:100EB0002178304606F0D1FD00BF4021304606F0D3
:100EC000BFFD0028F9D0641C20780028F0D10B98D1
:100ED000401C0B9020E0019820C801900A2202A932
:100EE0002846FFF77CFF02AC0BE02178304606F085
:100EF000B4FD00BF4021304606F0A2FD0028F9D025
:100F0000641C20780028F0D10B98401C0B9003E063
:100F10000B98401C0B9000BF06E00B9810F8011BCB
:100F20000B90304606F099FD00BF4021304606F098
:100F300087FD0028F9D00B980078002887D106B0EB
:100F400070BC5DF814FB000000040240001001407A
:100F5000000C0240004400400008024000480040ED
:100F60001CB5FD4903C9CDE9000108236A460021EB
:100F7000FA4800F0E1FC1CBD30B587B00446F649E4
:100F8000083103C9CDE9050104F5407000900190D6
:100F900000208DF808008DF8090008208DF80A005F
:100FA0000598C0B28DF80B000598010A8DF80C1059
:100FB0000598010C8DF80D100598000E8DF80E00A7
:100FC0000698C1B28DF80F100698010A8DF810101E
:100FD0000698010C8DF811100698000E8DF812007D
:100FE0006946DE4806F0D4FF054600BF2946DB48C7
:100FF00007F066F80128F9D107B030BD70B588B0A8
:1010000006460024D449103103C9CDE9060106F58E
:1010100040700190029000208DF80C008DF80D00BA
:1010200008208DF80E0000BF3FE006A810F834003D
:101030008DF80F0006A830F83400010A8DF8101062
:1010400006A850F83400010C8DF8111006A850F8CD
:101050003400000E8DF8120006A800EBC4000179E0
:101060008DF8131006A800EBC4008088010A8DF8E3
:10107000141006A800EBC4004068010C8DF8151090
:1010800006A800EBC4004068000E8DF8160001A908
:10109000B24806F07DFF054600BF2946AF4807F07D
:1010A0000FF80128F9D1601CC4B2012CBDDB08B0D7
:1010B00070BD2DE9F04194B005460E461746002458
:1010C0003822A549183106A807F0C8FA05F540707E
:1010D0000190029000208DF80C008DF80D00082082
:1010E0008DF80E000D960F979D491191494213916D
:1010F00000BF3FE006A810F834008DF80F0006A8E6
:1011000030F83400010A8DF8101006A850F83400A9
:10111000010C8DF8111006A850F83400000E8DF85F
:10112000120006A800EBC40001798DF8131006A880
:1011300000EBC4008088010A8DF8141006A800EBAB
:10114000C4004068010C8DF8151006A800EBC4001F
:101150004068000E8DF8160001A9804806F018FFBF
:10116000804600BF41467D4806F0AAFF0128F9D11C
:10117000601CC4B2072CBDDB14B0BDE8F081F0B533
:1011800089B005460F460024734B50330FCB05AE94
:101190000FC605F540700090019000208DF8080002
:1011A0008DF8090008208DF80A00069700BF3FE07F
:1011B00005A810F834008DF80B0005A830F83400AD
:1011C000010A8DF80C1005A850F83400010C8DF8B8
:1011D0000D1005A850F83400000E8DF80E0005A87B
:1011E00000EBC40001798DF80F1005A800EBC400D6
:1011F0008088010A8DF8101005A800EBC400406833
:10120000010C8DF8111005A800EBC4004068000E19
:101210008DF812006946514806F0BAFE064600BF36
:1012200031464E4806F04CFF0128F9D1601CC4B28B
:10123000022CBDDB09B0F0BD2DE9F043A5B080461E
:101240000D4616461F46002480224349603105A8FA
:1012500007F004FA08F540700090019000208DF826
:1012600008008DF8090008208DF80A0010951295E5
:101270001495169618961A961C971E9705A8C76679
:1012800037490A3941674942C1670A9149420C917D
:1012900000BF3FE005A810F834008DF80B0005A84A
:1012A00030F83400010A8DF80C1005A850F834000D
:1012B000010C8DF80D1005A850F83400000E8DF8C3
:1012C0000E0005A800EBC40001798DF80F1005A8E9
:1012D00000EBC4008088010A8DF8101005A800EB0F
:1012E000C4004068010C8DF8111005A800EBC40083
:1012F0004068000E8DF812006946184806F048FE56
:10130000814600BF4946154806F0DAFE0128F9D1AA
:10131000601CC4B2102CBDDB25B0BDE8F0832DE904
:10132000F0418AB005460F46904600240A4BE03350
:101330000FCB06AE0FC605F540700190029000205D
:101340008DF80C008DF80D0008208DF80E004FB9B7
:1013500044F25010069008E0A49800080064004091
:1013600000CA9A3B45F250200690CDF81C8000241C
:101370003FE006A810F834008DF80F0006A830F8FA
:101380003400010A8DF8101006A850F83400010C42
:101390008DF8111006A850F83400000E8DF81200D8
:1013A00006A800EBC40001798DF8131006A800EB25
:1013B000C4008088010A8DF8141006A800EBC40050
:1013C0004068010C8DF8151006A800EBC4004068B9
:1013D000000E8DF8160001A96B4806F0D9FD0646EF
:1013E00000BF3146684806F06BFE0128F9D1601C49
:1013F000C4B2022CBDDB0AB0BDE8F08130B587B0C5
:101400000446624903C9CDE9050104F54070009026
:10141000019000208DF808008DF8090008208DF853
:101420000A000598C0B28DF80B000598010A8DF8E6
:101430000C100598010C8DF80D100598000E8DF814
:101440000E000698C1B28DF80F100698010A8DF8AB
:1014500010100698010C8DF811100698000E8DF8EA
:1014600012006946484806F093FD054600BF29462C
:10147000454806F025FE0128F9D107B030BD30B54A
:1014800087B004464149083103C9CDE9050104F597
:1014900040700090019000208DF808008DF8090040
:1014A00008208DF80A000598C0B28DF80B00059849
:1014B000010A8DF80C100598010C8DF80D10059897
:1014C000000E8DF80E000698C1B28DF80F10069828
:1014D000010A8DF810100698010C8DF8111006986D
:1014E000000E8DF812006946274806F051FD0546AA
:1014F00000BF2946244806F0E3FD0128F9D107B0D2
:1015000030BD30B587B004462049103103C9CDE95C
:10151000050104F540700090019000208DF808004E
:101520008DF8090008208DF80A000598C0B28DF8E2
:101530000B000598010A8DF80C100598010C8DF828
:101540000D100598000E8DF80E000698C1B28DF8AA
:101550000F100698010A8DF810100698010C8DF8EE
:1015600011100698000E8DF812006946064806F024
:101570000FFD054600BF2946034806F0A1FD0128DE
:10158000F9D107B030BD0000006400409499000814
:101590002DE9F04F8BB006460F4614461D46DDF888
:1015A00050804FF00009CA46CB46B5F5807F43D046
:1015B00012DC102D34D008DC012D25D0022D26D0D0
:1015C000042D27D0082D4FD127E0202D2BD0402DE2
:1015D0002CD0802D48D12CE0B5F5805F38D009DCC7
:1015E000B5F5007F2BD0B5F5806F2BD0B5F5006F2A
:1015F0003AD12AE0B5F5005F2DD0B5F5804F2DD05A
:10160000B5F5004F30D12CE04FF000092DE04FF040
:1016100001092AE04FF0020927E04FF0030924E016
:101620004FF0040921E04FF005091EE04FF00609D4
:101630001BE04FF0070918E04FF0080915E04FF0E4
:10164000090912E04FF00A090FE04FF00B090CE016
:101650004FF00C0909E04FF00D0906E04FF00E09BC
:1016600003E04FF00F0900E000BF00BFB8F5807F36
:101670004BD01ADCB8F1100F3BD00CDCB8F1010FE5
:101680002BD0B8F1020F2BD0B8F1040F2BD0B8F14A
:10169000080F52D12AE0B8F1200F2DD0B8F1400F39
:1016A0002DD0B8F1800F48D12CE0B8F5805F38D04C
:1016B00009DCB8F5007F2BD0B8F5806F2BD0B8F5DA
:1016C000006F3AD12AE0B8F5005F2DD0B8F5804F11
:1016D0002DD0B8F5004F30D12CE04FF0000A2DE0AE
:1016E0004FF0010A2AE04FF0020A27E04FF0030A08
:1016F00024E04FF0040A21E04FF0050A1EE04FF00D
:10170000060A1BE04FF0070A18E04FF0080A15E040
:101710004FF0090A12E04FF00A0A0FE04FF00B0AEF
:101720000CE04FF00C0A09E04FF00D0A06E04FF014
:101730000E0A03E04FF00F0A00E000BF00BFA6480A
:10174000304418B1B0F5806F1AD10CE04FF0090B9E
:1017500000208DF8120014208DF8040001214806A5
:1017600005F097F80DE04FF0090B0E208DF81200F0
:1017700040208DF804000121000505F08AF800E002
:1017800000BF00BFC4F3090078BBA012A0F5801011
:101790008038092834D2DFE800F0050A0F14191E3A
:1017A00023292E000121084605F040F829E00121F7
:1017B000022005F03BF824E00121042005F036F872
:1017C0001FE00121082005F031F81AE00121102066
:1017D00005F02CF815E00121202005F027F810E095
:1017E0000121402005F022F80BE009E001218020D2
:1017F00005F01CF805E00121080205F017F800E0EB
:1018000000BF00BF5A464946204604F054FE5A46DF
:101810005146204604F04FFE45EA08000990022098
:101820008DF828008DF8290000208DF82A0001206D
:101830008DF82B0009A9204604F0B2FD304606F0D1
:1018400015FA00208DF81E008DF81F008DF820007D
:101850008DF821008DF822008DF823008DF81A00F4
:101860008DF81B000B208DF81C0007208DF81D0043
:101870007D2F22D008DC0A2F0FD0142F11D0322F49
:1018800013D0642F29D114E0FA2F1AD0B7F5FA7FBC
:101890001BD0B7F57A7F20D11BE0C820ADF8180027
:1018A0001CE06420ADF8180018E02820ADF81800FE
:1018B00014E01420ADF8180010E01020ADF8180066
:1018C0000CE00820ADF8180008E00420ADF818007E
:1018D00004E00220ADF8180000E000BF00BF06A938
:1018E000304606F0DCF900208DF8130001208DF859
:1018F00014000020ADF80800ADF80A00ADF80C00A7
:10190000ADF80E00ADF8100001208DF8150002A80A
:1019100006F04FFA01208DF805008DF806008DF8CD
:10192000070001A805F0C5F801220221304606F0A3
:101930003FFD0BB0BDE8F08F2DE9F04385B0814647
:101940000D4690461E4600240095019500208DF816
:1019500008008DF809008DF80A6000BF06E018F84D
:1019600004100DF10B000155601C84B2B442F6DB8B
:101970006946484606F00CFB0746002400BF39467E
:10198000484606F09DFB0128F9D105B0BDE8F0837B
:101990002DE9F04186B080460D4616461F460024CC
:1019A0000021404606F06CFC18B9002006B0BDE8E6
:1019B000F08101AA0021404606F0DFFB002405E08B
:1019C0000DF10F00005D3055601CC4B2BC42F7DB66
:1019D000019828600120E9E7009CFFBF2DED028BF4
:1019E00082B03FE001AA00215048006803F03AFAB3
:1019F0004F4890F9000020B1012815D002282FD1BE
:101A00002DE000F08FFEB0EE408A00F08FFE00F077
:101A100099FEB0EE408A00F099FE45480078401CDF
:101A200040B2434908701CE0B3EE041AF3EE0E0A0C
:101A30009FED400A00F0DDFAB3EE042ADFED3E1A16
:101A40009FED3E1ADFED3E0A9FED3E0A00F08BFB54
:101A500037480078401C40B23549087001E000E08A
:101A600000BF00BFBEE71CB59DF8040001904FF415
:101A7000A06005F019F84FF400704310324A4FF49B
:101A8000FA7100903148FFF783FD4FF47A713048C6
:101A9000FEF79DFE4FF4E130FFF7EBF843F2B06143
:101AA0002B48FEF794FEFFF75BFA0120FFF764FA7C
:101AB0000220FFF761FA274A11460120FFF7F9FAE1
:101AC000244A11460220FFF7F4FA41F270712048CF
:101AD000FEF77DFE0320034640F2473240F2E73135
:101AE00000904FF08040FEF7D9FB01AA00210F487B
:101AF000006803F0CDFAFF2003F086FE1CBD10B590
:101B000000BF002003F01CF9084908600B23124AAB
:101B10000021124803F0BDFB04460D23104A0021AA
:101B2000104803F0B6FB044610BD00003000002052
:101B300034000020000000000000FA430000704262
:101B400000007A4500007AC50004024000640040AD
:101B5000000C0040A0860100F0200020671A000859
:101B6000F02C0020DD190008DFEDF90A60EE200AF4
:101B7000B2EE0A1A60EE810AB0EE081AC0EE811ABF
:101B8000DFEDF40A21EEA01AF3EE0E1AC1EE210ADF
:101B90009FEDF11AC0EE811AFDEEE10A10EE900AF7
:101BA000704710B500210120FFF7E9FA002102205B
:101BB000FFF7E5FA10BD00B52DED028B83B0F0EE16
:101BC000408AB0EE608A9FEDE50AC8EE000A9FEDFC
:101BD000E40A20EE800AB0EE408A9FEDE20A68EE49
:101BE000000AB0EE001A80EE810A30EE280A8DED70
:101BF000010A9FEDDC0A68EE000AB0EE001A80EEE2
:101C0000810A38EEC00A8DED020ADDED010AB0EE60
:101C1000600AFFF7A9FF00EE100AB8EEC00A8DEDCA
:101C2000010ADDED020AB0EE600AFFF79DFF00EE4B
:101C3000100AB8EEC00A8DED020A9DED010AB1EE60
:101C4000400ABDEEC00A10EE101A0120FFF797FA05
:101C50009DED020ABDEEC00A10EE101A0220FFF739
:101C60008EFA03B0BDEC028B00BD10B52DED0E8BCE
:101C7000B0EE408AF0EE60AAB0EE41BAF0EE61BA82
:101C80009FEDB90AF0EE408A9FEDB70AB0EE409A98
:101C9000B0EE000AF0EE408A00F04CFD3AEEC00AC9
:101CA000F0EE409A00F056FD3BEE400AB0EE40AA3E
:101CB000F5EEC09AF1EE10FA59DBB5EEC0AAF1EEDE
:101CC00010FA54DB1AEE100A07F076FD41EC1C0BFB
:101CD000B0EE4C0AF0EE6C0A06F0B4FFB0EE40DA5B
:101CE000F0EE60DA19EE900A07F066FD41EC1C0B8D
:101CF000B0EE4C0AF0EE6C0A06F0A4FFB0EE40EA3B
:101D0000F0EE60EA53EC1D2B51EC1E0B07F01EFDAC
:101D100016D20DE000F0F6FC30EE480AB0EE409A24
:101D200029EE280AF0EE400AB0EE6B0AFFF743FFF7
:101D300000F0F8FCB4EEEA0AF1EE10FA76DAE9E720
:101D40000DE000F0DFFC30EE480AB0EE409A29EEDC
:101D5000280AF0EE400AB0EE6B0AFFF72CFF00F005
:101D6000F1FCB4EECB0AF1EE10FAE7DAE9E7F5EEB2
:101D7000C09AF1EE10FA5AD8B5EEC0AAF1EE10FAF8
:101D800055DB1AEE100A07F017FD41EC1C0BB0EE04
:101D90004C0AF0EE6C0A06F055FFB0EE40DAF0EEB9
:101DA00060DA19EE900A07F007FD41EC1C0BB0EE6B
:101DB0004C0AF0EE6C0A06F045FFB0EE40EAF0EE99
:101DC00060EA53EC1D2B51EC1E0B07F0BFFC16D242
:101DD0000DE000F097FC30EE480AB0EE409A29EE94
:101DE000280AF0EE400AB0EE6B0AFFF7E4FE00F0BE
:101DF00099FCB4EEEA0AF1EE10FA17D9E9E70DE022
:101E000000F080FC30EE480AB0EE409A29EE280A35
:101E1000F0EE400AB0EE6B0AFFF7CDFE00F092FC48
:101E2000B4EECB0AF1EE10FA00DAE9E7B5E0F5EE30
:101E3000C09AF1EE10FA59DBB5EEC0AAF1EE10FA35
:101E400054D81AEE100A07F0B7FC41EC1C0BB0EEA8
:101E50004C0AF0EE6C0A06F0F5FEB0EE40DAF0EE59
:101E600060DA19EE900A07F0A7FC41EC1C0BB0EE0B
:101E70004C0AF0EE6C0A06F0E5FEB0EE40EAF0EE39
:101E800060EA53EC1D2B51EC1E0B07F05FFC16D2E1
:101E90000DE000F037FC30EE480AB0EE409A29EE33
:101EA000280AF0EE400AB0EE6B0AFFF784FE00F05D
:101EB00039FCB4EEEA0AF1EE10FA6EDAE9E70DE069
:101EC00000F020FC30EE480AB0EE409A29EE280AD5
:101ED000F0EE400AB0EE6B0AFFF76DFE00F032FC48
:101EE000B4EECB0AF1EE10FA6DD9E9E7F5EEC09A3F
:101EF000F1EE10FA67D8B5EEC0AAF1EE10FA62D88A
:101F00001AEE100A07F058FC41EC1C0BB0EE4C0A1C
:101F1000F0EE6C0A06F096FEB0EE40DAF0EE60DA13
:101F200019EE900A07F048FC41EC1C0BB0EE4C0A8D
:101F3000F0EE6C0A06F086FEB0EE40EAF0EE60EAE3
:101F400053EC1D2B51EC1E0B07F000FC24D21BE0C0
:101F50000000FA4400002C429BEBC54300003443D0
:101F6000DA0F4940000084430000000000F0CAFB83
:101F700030EE480AB0EE409A29EE280AF0EE400A08
:101F8000B0EE6B0AFFF717FE00F0CCFBB4EEEA0AE6
:101F9000F1EE10FA17D9E9E70EE014E000F0B2FB19
:101FA00030EE480AB0EE409A29EE280AF0EE400AD8
:101FB000B0EE6B0AFFF7FFFD00F0C4FBB4EECB0AF6
:101FC000F1EE10FAEAD85FED180A1FED190AFFF7D3
:101FD000F2FD00F0A7FBB0EE40CA00F0A7FB00F056
:101FE000B1FBB0EE40CA00F0B1FB0020BDEC0E8B9F
:101FF00010BD00B52DED048B83B0B0EE409AF0EE2D
:10200000608AB0EE418A5FED2B0A88EE200A5FED10
:102010002C0A20EE200AB0EE408AB0EEC80AF0EE9C
:10202000C80A88EE201A5FED310A21EE201AF0EE80
:10203000001AC1EE210A70EE890A20EE200A8DED09
:10204000010AB0EEC80AB0EEC81AC8EE010A1FEDC8
:102050003B1A20EE811AF0EE001AC1EE210A79EE49
:10206000600A20EE200A8DED020ADDED010AB0EED5
:10207000600AFFF779FD00EE100AB8EEC00A8DED98
:10208000010ADDED020AB0EE600AFFF76DFD00EE19
:10209000100AB8EEC00A8DED020A9DED010AB1EEFC
:1020A000400ABDEEC00A10EE101A0120FFF767F8D3
:1020B0009DED020ABDEEC00A10EE101A0220FFF7D5
:1020C0005EF800F027FBB5EEC00AF1EE10FA05DD70
:1020D000F5EEC08AF1EE10FA00D200BF00F01AFB54
:1020E000B5EEC00AF1EE10FA05D2F5EEC08AF1EEB7
:1020F00010FA00DD00BFB5EEC08AF1EE10FA08DD7F
:1021000000BF00F0FFFAB4EEE80AF1EE10FAF8D2E0
:102110000CE0B5EEC08AF1EE10FA07D200BF00F075
:10212000F1FAB4EEE80AF1EE10FAF8DD5FED720AAA
:102130001FED730AFFF73FFD00F0F4FAF0EE409A4E
:1021400000F0F4FA00F0FEFAF0EE409A00F0FEFA29
:1021500000F0D8FAF0EE409A00F0D8FA002003B070
:10216000BDEC048B00BD10B52DED060B2DED108BD5
:10217000F0EE409AB0EE60AAF0EE418AB0EE429ADC
:1021800000F0D8FAF0EE40BA00F0C4FADFEDFE0A33
:1021900020EE200AB0EE40BA07F064F8DFEDFB0A4B
:1021A00040EEC0BAF0EE6BAA00F0D4FAF0EE40BAFE
:1021B00000F0B0FADFEDF40A20EE200AB0EE40BAEB
:1021C00006F098FCDFEDF10A40EE80BAB0EE6BDA73
:1021D00000F0A0FADFEDEC0A20EE200AB0EE40BAE3
:1021E00007F040F89FEDE91AF0EE690A41EE000AA7
:1021F000F0EE60DA00F08EFADFEDE30A20EE200A5E
:10220000B0EE40BA06F076FC9FEDE01AF0EE4A0A16
:1022100041EE400AB0EE60EA7EEE4D0AB0EE600A92
:10222000F0EE000A06F018FDF0EE40BA7DEEEA0A84
:10223000B0EE600AF0EE000A06F00EFD3BEE800AFA
:10224000B0EE40BA07F0D6F8F0EE40FA3DEEEA1AEA
:10225000F0EE410A3EEE4D1AB0EE410A06F022FBC6
:10226000DFEDCB0A20EE200AF0EE40EAF0EE000AA5
:102270008FEEA00ADFEDC50A80EE801AB0EE41BAFB
:10228000B0EE4B0A06F078FADFEDC10A20EE200A24
:10229000B0EE40FA3EEE8F0AB0EE408A00F032FA1D
:1022A000B5EEC00AF1EE10FA04DBB5EEC08AF1EE2D
:1022B00010FA0BDA00F026FAB5EEC00AF1EE10FAC9
:1022C00058D8B5EEC08AF1EE10FA53D800F01AFAD9
:1022D000B4EEC80AF1EE10FA10DBB0EE491AF0EED7
:1022E000480A9FEDAA0AFFF784FE00BF00F00AFA31
:1022F000B4EEC80AF1EE10FAF8D8BAE0B1EE491A15
:10230000F0EE480A9FEDA10AFFF773FE1FEDED0AFC
:1023100038EE400A10EE101A084607F04DFA41EC6C
:102320001C0BB0EE4C0AF0EE6C0A06F08BFCB0EE23
:1023300040BAF0EE60BA9FED970B53EC102B51ECC6
:102340001B0B07F073F90CD200BF00F0DBF9F7EEBE
:10235000080A78EE600AB4EEE00AF1EE10FAF4DB57
:1023600087E000BF00F0CEF9B4EEC80AF1EE10FA33
:10237000F8DB7EE000F0C6F9B5EEC00AF1EE10FA27
:1023800038DDB5EEC08AF1EE10FA33D200F0BAF9BA
:10239000DFED820A30EE600AB4EEC80AF1EE10FA00
:1023A00010D2B0EE491AF0EE480A9FED780AFFF716
:1023B00020FE00BF00F0A6F9B4EEC80AF1EE10FA54
:1023C000F8D856E0B1EE491AF0EE480A9FED6F0AD0
:1023D000FFF70FFE00BF00F095F9B4EEC80AF1EE6A
:1023E00010FAF8DB00F08EF9B5EEC00AF1EE10FA43
:1023F000F1D23EE000F086F9B5EEC00AF1EE10FA37
:1024000037D2B5EEC08AF1EE10FA32DD00F07AF97B
:10241000DFED620A30EE200AB4EEC80AF1EE10FADF
:1024200017D2B0EE491AF0EE480A9FED580AFFF7AE
:10243000E0FD00BF00F066F9B4EEC80AF1EE10FA54
:10244000F8D800F05FF9B5EEC00AF1EE10FAF1DD50
:102450000FE0B1EE491AF0EE480A9FED4C0AFFF783
:10246000C8FD00BF00F04EF9B4EEC80AF1EE10FA54
:10247000F8DBDFED4A0A70EEC80A9FED431A60EE02
:10248000810AB0EE600A06F0EDFE9FED401AF0EE14
:10249000690A41EE400AF0EE609ADFED400A70EE04
:1024A000C80A9FED391A60EE810AB0EE600A06F0A4
:1024B00021FB9FED361AF0EE4A0A41EE400AB0EEDB
:1024C00060AADDED131AB0EE4A1AF0EE690AB0EE1A
:1024D000480AFFF7CAFB00F015F9B5EEC00AF1EEA5
:1024E00010FA04DBF5EEC08AF1EE10FA0BDA00F018
:1024F00009F9B5EEC00AF1EE10FA66D8F5EEC08A19
:10250000F1EE10FA61D800F0FDF8B4EEE80AF1EE51
:1025100010FA10DBB0EE491AF0EE680A9FED1B0AC4
:10252000FFF767FD00BF00F0EDF8B4EEE80AF1EE4A
:1025300010FAF8D8C8E0B1EE491AF0EE680A9FED3B
:10254000130AFFF756FD9FED150A38EEC00A10EE8C
:10255000101A084607F030F941EC1C0BB0EE4C0A9B
:10256000F0EE6C0A06F06EFBB0EE40BAF0EE60BA28
:102570009FED080B53EC102B51EC1B0B07F056F89A
:102580001AD200BF0CE0000035FA8E3C0000FA437E
:10259000E22E6542000000000000F83F00003443D6
:1025A00000F0B0F8F7EE080A78EEE00AB4EEE00AC0
:1025B000F1EE10FAE6DB87E000BF00F0A3F8B4EE1E
:1025C000E80AF1EE10FAF8DB7EE000F09BF8B5EED9
:1025D000C00AF1EE10FA38DDF5EEC08AF1EE10FA1D
:1025E00033D200F08FF85FED130A30EE600AB4EEDC
:1025F000E80AF1EE10FA10D2B0EE491AF0EE680ACD
:102600001FED1E0AFFF7F5FC00BF00F07BF8B4EEEB
:10261000E80AF1EE10FAF8D856E0B1EE491AF0EEF9
:10262000680A1FED260AFFF7E4FC00BF00F06AF815
:10263000B4EEE80AF1EE10FAF8DB00F063F8B5EE5C
:10264000C00AF1EE10FAF1D23EE000F05BF8B5EE10
:10265000C00AF1EE10FA37D2F5EEC08AF1EE10FAA8
:1026600032DD00F04FF85FED330A30EE200AB4EEB1
:10267000E80AF1EE10FA17D2B0EE491AF0EE480A65
:102680001FED3E0AFFF7B5FC00BF00F03BF8B4EECB
:10269000E80AF1EE10FAF8D800F034F8B5EEC00A06
:1026A000F1EE10FAF1DD0FE0B1EE491AF0EE680A32
:1026B0001FED4A0AFFF79DFC00BF00F023F8B4EEBF
:1026C000E80AF1EE10FAF8DBDFED0B0A9FED0A0ADB
:1026D000FFF771FA00F026F8B0EE40BA00F026F8E5
:1026E00000F030F8B0EE40BA00F030F80020BDEC59
:1026F000108B06B010BD000000000000174880EDF0
:10270000000A7047154890ED000A7047144880EDA4
:10271000000A7047124890ED000A7047114880ED9A
:10272000000A70470F4890ED000A70470E4880ED90
:10273000000A70470C4890ED000A70470B4880ED86
:10274000000A7047094890ED000A7047084880ED7C
:10275000000A7047064890ED000A704738000020D4
:10276000440000203C0000204800002040000020E1
:102770004C0000200CB500200190009076480068C5
:1027800040F480307449086000BF7348006800F46A
:10279000003000900198401C0190009818B90198F1
:1027A000B0F5A06FF1D16C48006800F4003010B1B2
:1027B0000120009001E0002000900098012846D1FF
:1027C00065484030006840F08050634940310860FF
:1027D0006248006840F48040604908605E48083004
:1027E00000685D49083108600846006840F4004010
:1027F00008600846006840F4A05008605848091F67
:102800000860081F006840F08070091F086000BF62
:102810005148006800F000700028F9D040F20560CF
:10282000504908604C480830006820F003004A49CD
:10283000083108600846006840F00200086000BFE8
:1028400045480830006800F00C000828F8D10CBD9D
:1028500010B54548006840F47000434908603E48A0
:10286000006840F001003C49086000203A49083106
:102870000860394800683D490840374908603C48CD
:10288000091D0860081F006820F48020091F0860E7
:10289000002031490C310860FFF76CFF4FF00060F9
:1028A00031498039086010BD70B500200022022334
:1028B00000240221284D08352D6805F00C0020B1B8
:1028C000042806D0082834D107E02A4D2A4E356066
:1028D00033E02A4D284E35602FE01F4D2D1D2D6809
:1028E000C5F380541C4D2D1D2D6805F03F0154B1DA
:1028F000224DB5FBF1F5184E361D3668C6F3881625
:1029000005FB06F209E01B4DB5FBF1F5124E361D35
:102910003668C6F3881605FB06F20F4D2D1D2D688F
:10292000C5F301456D1C6B00B2FBF3F5124E35602B
:1029300003E0104D104E356000BF00BF064D083556
:102940002D68C5F303150E4E705D0B4D2D68C54007
:10295000094E356070BD0000003802400070004034
:1029600008544007003C024088ED00E0FFFFF6FEFF
:10297000103000240024F4005000002000127A00DF
:10298000540000200C48016841F4700101600B48BC
:1029900080470B480047FEE7FEE7FEE7FEE7FEE75D
:1029A000FEE7FEE7FEE7FEE7FEE700000548064912
:1029B000064A074B7047000088ED00E051280008E8
:1029C00089010008E04E0020E0540020E050002083
:1029D000E0500020AA48802102E0491E002204C0E5
:1029E0000029FAD1A74AA84B1A601A46126822F0A9
:1029F00007021A600022A54B1A807047704710B575
:102A00000446204603F055FC10BD10B50446204690
:102A100003F050FC10BD10B503F04DFC10BD10B517
:102A200003F04BFC10BD70B5044610460026051F90
:102A300028462E60051F28462E604FF01536051FCC
:102A400028462E604FF01436051F28462E604FF0A2
:102A50001336051F28462E604FF01236051F2846F4
:102A60002E604FF01136051F28462E604FF01036AD
:102A7000051F28462E604FF00936051F28462E6098
:102A80004FF00836051F28462E604FF00736051F09
:102A900028462E604FF00636051F28462E604FF060
:102AA0000536051F28462E604FF00436051F2846C0
:102AB0002E604FF00336051F28462E604FF0023679
:102AC000051F28462E607610051F28462E6000261A
:102AD000051F28462E604FF08076051F28462E6081
:102AE000051F28462C606A4E051F28462E604FF0B1
:102AF0001236051F28462E604FF00336051F284664
:102B00002E604FF00236051F28462E607610051FF6
:102B100028462E60051F284629604FF03136051FD4
:102B200028462E604FF03036051F28462E604FF0A5
:102B30002936051F28462E604FF02836051F2846E7
:102B40002E604FF02736051F28462E604FF02636A0
:102B5000051F28462E604FF02536051F28462E609B
:102B60004FF02436051F28462E604FF02336051FF0
:102B700028462E604FF02236051F28462E604FF063
:102B80002136051F28462E604FF02036051F2846A7
:102B90002E604FF01936051F28462E604FF018366C
:102BA000051F28462E604FF01736051F28462E6059
:102BB0004FF01636051F28462E604FF01136051FC0
:102BC00028462E604FF01036051F28462E604FF025
:102BD0000936051F28462E604FF00836051F284687
:102BE0002E604FF00736051F28462E604FF0063640
:102BF000051F28462E604FF00536051F28462E601B
:102C00004FF00436051F28462E6070BD10B503F046
:102C100055FB10BD10B50446204603F050FB10BD17
:102C200010B503F04DFB19480088401C1749088077
:102C3000084600880A2803D30020088003F054FACD
:102C400010BD10B500F02AF8044612480078401C68
:102C500010490870204600F025F800F008FE00F04A
:102C60000CFD10BD411E4FF0E0225161FF220A49C8
:102C7000CA7200214FF0E022916107211161704773
:102C8000F4300020F43200206400002068000020AE
:102C9000E35900088500002018ED00E0EFF31080F4
:102CA00072B6704780F31088704722484FF0FF01DA
:102CB0000170002080F309881F48012101701F481E
:102CC0004FF08051016062B6FEE71C484FF0805122
:102CD0000160704719484FF080510160704772B62B
:102CE000EFF3098040B1403880EC108A203880E84A
:102CF000F00F13490968086000B5124880475DF875
:102D000004EB114811490A7802700D4810490A680D
:102D10000260106890E8F00F203090EC108A40308C
:102D200080F309884EF0040E62B6704772B67047A1
:102D300062B6704722ED00E09200002004ED00E052
:102D4000980000200D2C000887000020880000203B
:102D5000A00000201D481E481E481F481F4820484C
:102D60002048214821482248224823482348244813
:102D700024482548254826482648274827482848E3
:102D80002848294829482A482A482B482B482C48B3
:102D90002C482D482D482E482E482F482F48304883
:102DA0003048314831483248324833483348344853
:102DB0003448354835483648364837483748384823
:102DC00038483948394800BF70470000AC990008BE
:102DD000B0990008B6990008B8990008B49900089D
:102DE000BA990008BC990008BE990008C09900086B
:102DF000C2990008C4990008C6990008C89900083B
:102E0000CA990008CC990008CE990008D09900080A
:102E1000D2990008D4990008D6990008D8990008DA
:102E2000DA990008DC990008DE990008E0990008AA
:102E3000E2990008E4990008E6990008E89900087A
:102E4000EA990008EC990008EE990008F09900084A
:102E5000F2990008F4990008F6990008F89900081A
:102E6000FA990008FC990008FE990008029A0008E7
:102E7000049A0008069A0008089A0008BC49002035
:102E80003C4E00200C9A00080E9A0008109A000888
:102E9000129A0008149A0008169A0008189A000856
:102EA0001A9A00081C9A00080A9A00081E9A00083C
:102EB0000146002002E0491C421CD0B20A78002AD8
:102EC000F9D170472DE9F04105460E46144600271A
:102ED00025B9042020700020BDE8F0811EB90C2027
:102EE00020700020F8E7F748007818B11120207012
:102EF0000020F1E72878012808D0022807D003280D
:102F000002D0042804D100E000BF00BF00BF03E0EE
:102F1000012020700020DFE700BFFFF7BFFE07465B
:102F2000686930603068FFF7C3FF80463846FFF7B6
:102F3000B9FE002020704046CEE72DE9F04105465D
:102F40000E46144600271DB904202070BDE8F0810C
:102F500016B90C202070F9E7DA48007810B1122079
:102F60002070F3E72878012808D0022807D003282A
:102F700002D0042804D100E000BF00BF00BF02E07F
:102F800001202070E2E700BFFFF788FE07466E6170
:102F90003846FFF787FE0020207000BFD6E7F0B567
:102FA000024612F8384F95785678383A0B4618682A
:102FB0000FE000F10B073F5DB74300F10B0C0CF87D
:102FC000047067463F5D17B9877AAF4387721B1D50
:102FD00018680028EDD1F0BDBB49BC4A1278885C66
:102FE000BB49095CB84A515C01EBC001B94A117098
:102FF000704710B50024FFF751FE0446B148007831
:10300000F8B9B5480078E0B9FFF7E6FFB348B14931
:10301000097850F82100B2490860AE480078B149FB
:10302000097888420DD0AE480068C06B401CAC499E
:103030000968C863AC480068401CAB490860FFF7EA
:1030400044FE2046FFF72EFE10BD70B50146002459
:10305000A64D2D68EC61A54C246821620B461868CA
:103060001BE0A24C246894F8385000F10B04645D16
:103070009E4D2D6895F839502C439C4D2D6895F840
:10308000386000F10B05AC55847A984D2D6895F8A1
:103090003A502C4384721B1D18680028E1D1934CD0
:1030A000246894F838208A4CA45C904D2D6895F8DB
:1030B0003950AC43864DAC542C46A45C44B98B4C7F
:1030C000246894F83A50814C2478AC437F4D2C709E
:1030D00070BD2DE9FF4F83B081460E461546109F07
:1030E00000200090B9F1000F05D1042038700020B5
:1030F00007B0BDE8F08FD9F8000018B90420387087
:103100000020F5E71EB9042038700020F0E71DB953
:10311000042038700020EBE700203060CA46DAF85F
:10312000004015E02078062807D2DFE800F006040A
:103130000503070807E006E005E000BF00BF012027
:1031400038700020D4E700BF0AF1040ADAF8004022
:10315000002CE7D15B48007818B1022038700020BD
:10316000C6E75D48007818B10D2038700020BFE731
:10317000FFF794FD00900020029083460190CA461C
:10318000DAF8004066E02078062853D2DFE800F045
:1031900052172A035354208960B12089401E208190
:1031A00010C601200290002001C50BF101001FFA9A
:1031B00080FB03E0019840F00100019045E0606869
:1031C00058B1606801C50020606010C601200290FF
:1031D0000BF101001FFA80FB03E0019840F00200B0
:1031E000019032E0D4F80480B8F81600E8B1D8F8BD
:1031F0001010081DC8F81000086801C5D8F808109C
:10320000D8F81000884203D1D8F80400C8F810009C
:10321000B8F81600401EA8F8160010C6012002904B
:103220000BF101001FFA80FB03E0019840F004005D
:1032300001900AE000BF00BF0098FFF733FD0020B7
:10324000306001203870584652E700BF0AF1040A86
:10325000DAF80040002C96D10298012808D100200D
:1032600030600098FFF71EFD0020387058463FE799
:103270001E48006890F83400019941F0800108432D
:103280001A49096881F8340000201849096881F852
:10329000350016490698096808634846FFF7D5FEC9
:1032A0000098FFF7FFFCFFF7A4FEFFF7F7FC009084
:1032B0000E48006890F83500D0B1012831D00228BE
:1032C0002ED116E085000020209A000889000020F9
:1032D0008A0000208800002086000020E43C0020B6
:1032E000A0000020870000206C0000209800002033
:1032F00000BFFE480068C4693CB110C600203060C1
:103300000BF101001FFA80FB09E00120F749096871
:1033100081F835004946F5480068FFF740FE06E0B1
:1033200000BF4946F1480068FFF739FE00BF00BF03
:10333000EE48006890F8350020B1012828D0022816
:1033400025D11FE0207806280DD2DFE800F00C061A
:1033500007030D0E002001C510E000BFE348006820
:10336000406A01C50AE000BF00BF0098FFF79AFC61
:1033700000203060012038705846B9E600BF0020B8
:1033800038700AE0002001C50E20387005E000BF4B
:10339000002001C50A20387000BF00BF0020D349BB
:1033A000096881F83400D149096881F83500CF49AE
:1033B0000968C861CD4909680862CC490968486252
:1033C0000098FFF76FFC584692E67CB5002514E0A4
:1033D0006946284602F0CDF9064666B9C44850F859
:1033E000254044B1012C06D0D4E9020100EB810054
:1033F000A0640198E064681CC5B23F2DE8D97CBD8B
:10340000002400BF02E0142002F0F8FAB948007866
:103410000028F8D0B84800686421B0FBF1F0B64944
:1034200008600846006828B90020B4490870FF20E9
:1034300002F0EAF900BFFFF731FC0446B04800682B
:10344000B04908600020AE4908602046FFF72AFC1A
:10345000AC480068A8490968B0FBF1F0C0F164000D
:10346000A6490870FFF7DBFAFFF7AFFF0A2002F06A
:10347000C5FAE0E700B587B0032000218022A24B07
:10348000CDE90132CDE903104FF6FE703E239F4A8D
:103490000090AFF2930001F057FF06AA9CA13E20D6
:1034A00002F0DAF807B000BD002400BF00BFFFF74C
:1034B000F5FB044692480068401C9149086020468C
:1034C000FFF7F0FBFFF7A7FAF1E700B587B003209D
:1034D00000218022924BCDE90132CDE903104FF655
:1034E000FF703F238F4A0090AFF2430001F02CFFA2
:1034F00006AA8DA13F2002F0AFF807B000BD04E09E
:10350000002200F8012B4A1E91B20029F8D1704721
:1035100070B54FF4B4618848FFF7F1FF002411E063
:10352000601C85B204EB4400834901EBC00305EB4A
:10353000450001EBC006002018705E607FA0586156
:10354000601C84B23B2CEBD304EB44007A4901EBC2
:10355000C00300201870586078A058610846784968
:10356000086070BD70B54FF430617648FFF7C7FF53
:103570004FF480715E48FFF7C2FF002413E0601C27
:10358000C5B204EB440000EBC4006E4901EBC0037C
:1035900005EB450000EBC50001EBC0065E6167A0CE
:1035A0001865601CC4B21F2CE9D304EB440000EB87
:1035B000C400644901EBC003002058615FA0186596
:1035C0000020614908605F486049086070BD0021C3
:1035D0005F4A1170002004E000215E4A1154411C32
:1035E000C8B20828F8D300215B4A11705B4A1170F9
:1035F0005B4A11603D4A11607047002059490860DC
:103600005949087059490870594908705949087052
:10361000594908603A4908603A49086036490860E3
:1036200034490870704710B5FFF7D4F9FFF7E5FF8C
:10363000FFF7CDFFFFF796FFFFF76AFF00F0E4FE0C
:1036400001F00FF801F03BFBFFF73FFFFFF712FF20
:1036500002F0A4FDFFF7D2F9FFF77CFB10BD45484F
:103660000078012808D140480078FF2804D23E485D
:103670000078401C3C490870704710B500243D4854
:103680000078012830D1FFF709FB0446364800785E
:1036900020B135480078401E334908703248007820
:1036A000F8B932480078E0B9FFF796FC10482B498A
:1036B000097850F821002A490860284800782649EE
:1036C000097888420DD026480068C06B401C244908
:1036D0000968C86328480068401C27490860FFF74C
:1036E000F9FA2046FFF7DEFA10BD0000980000202E
:1036F000E43C0020840000207C00002078000020B2
:103700009400002080000020E4380020E03A0020EF
:1037100075432F4F532D49492053746174000000A5
:10372000E43A0020E03C002075432F4F532D4949D7
:103730002049646C65000000F43200203F00000066
:1037400070000020E43D0020A40000209C00002028
:10375000890000208A0000208700002088000020C7
:10376000A0000020B400002085000020860000207A
:1037700093000020920000206C00002010B500246F
:10378000FE480078012811D1FFF788FA0446FC486A
:10379000007840B9FB480078FF2804D2F948007847
:1037A000401CF84908702046FFF77CFA10BD10B5A0
:1037B0000024F2480078012821D1FFF76FFA04466F
:1037C000F0480078C0B1EF480078401EED4908701D
:1037D0000846007860B9EA48007828B92046FFF723
:1037E00061FAFFF706FC0AE02046FFF75BFA06E005
:1037F0002046FFF757FA02E02046FFF753FA10BDC4
:1038000010B5DE48007890B9FFF7E6FBDE48007897
:10381000DE490870DE48DC49097850F82100DD49AE
:10382000086008460068DC490860FFF73EFA10BDF2
:1038300010B50024022002F0E1F8FFF72FFA044649
:103840000020D64908602046FFF72CFA0A2002F033
:10385000D5F8FFF723FA0446D0480068D04908603D
:103860000120D04908702046FFF71CFA10BD70B542
:103870000026FFF7D5F9FFF711FA0646CA48006897
:10388000401CC94908603046FFF70CFABB48007875
:10389000012853D1C548007820B1012804D002285E
:1038A00009D103E001250BE0002509E001250120F5
:1038B000BE49087004E001250020BC49087000BF23
:1038C00000BF05B970BDBA48046833E0FFF7E6F9F8
:1038D0000646206B50B3206B401E2063206B28BB34
:1038E00094F8340000F0370040B114F8340F00F0C1
:1038F000C800207001206070343C02E0002084F891
:10390000350094F8340000F0080078B93834A07815
:10391000A84909780843A74908702078A649085C97
:103920006178084314F83819A34A50546469304642
:10393000FFF7B8F994F836003F28C7D100BFC1E7B8
:1039400040F223107047704710B590F8382001F10D
:103950000B039B5C90F83940A34301F10B04A35483
:1039600023469B5C23B98B7A90F83A40A3438B7231
:1039700010BD2DE9F04F05460F4690469946A87AAE
:103980008E490E5C05F10B00805D11F800B00BEB69
:10399000C60000F0FF0A7E4850F82A400020243478
:1039A000E0602760207C20EA0800207484F81190F1
:1039B000207C243C00F0080068B994F83A007D4966
:1039C000097808437B4908707B48805D94F839107A
:1039D00008437949885529462046FFF7B5FF206AF4
:1039E00020B12046216AFFF7DAFAE5615046BDE8CA
:1039F000F08F10B5684A1268D061674A126892F871
:103A0000383000F10B02D25C634B1B6893F83930FD
:103A10001A43614B1B6893F8384000F10B031A55A9
:103A2000827A5D4B1B6893F83A301A4382725A4A85
:103A3000126892F83810604A525C574B1B6893F832
:103A400039309A435C4B5A541A46525C42B9524A36
:103A5000126892F83A30574A12789A43554B1A70C6
:103A600010BD014600228A72002005E0002301F10A
:103A70000B021354421CD0B20828F7D3704705E05C
:103A800011F8013B00F8013B531E9AB2002AF7D10E
:103A900070472DE9F84F05460F4690469946DDE9F7
:103AA0000AAB00200090FFF7F9F800904448046842
:103AB000002C61D01C3454F8080C4149086000986F
:103AC000FFF7F0F844F81C7CA5760020207660769D
:103AD000606144F818BC44F810AC44F8148C0C989D
:103AE00024F80C0C24F80A9C0020E077E8102077DA
:103AF00005F00700E076217F01208840A077E17E75
:103B0000012088406077002020606060E060A06055
:103B10002062A0626062E0622063AFF2E030606326
:103B20001C3C002606E0002104F1540040F8261059
:103B3000701CC6B2002EF6D02046FFF76BF8204668
:103B4000FEF75DFFFFF7AAF80090114840F8254006
:103B50001748006860610020A0611548006810B136
:103B6000134800688461124804603834A078114911
:103B7000097808430F4925E039E000009200002051
:103B8000850000208600002088000020870000209B
:103B9000E43C0020A00000209800002094000020B9
:103BA0007C00002084000020B4000020A800002039
:103BB000A4000020890000208A000020209A00082C
:103BC0009C000020087020780B49085C617808434D
:103BD00014F83819084A505408480078401C07491E
:103BE00008700098FFF75EF80020BDE8F88F009895
:103BF000FFF758F84220F8E78A00002093000020E1
:103C00002DE9F05F04460F4691461E464FF0000B2B
:103C100024B96E2030700020BDE8F09F2078052880
:103C200003D0012030700020F6E709F0800ABAF1D5
:103C3000000F04D029F080094FF0010801E04FF097
:103C4000000800203070FFF729F88346B9F1000F13
:103C50002CD0B9F1010F3BD0B9F1020F03D0B9F16B
:103C6000030F46D111E0208900EA0705BD4206D1C5
:103C7000B8F1010F05D12089A843208101E070200F
:103C800030705846FFF70EF83AE0208900EA070541
:103C900035B1B8F1010F05D12089A843208101E099
:103CA000702030705846FEF7FDFF29E0208927EA92
:103CB0000005BD4206D1B8F1010F05D12089284386
:103CC000208101E0702030705846FEF7EBFF17E0CE
:103CD000208927EA000535B1B8F1010F05D1208907
:103CE0002843208101E0702030705846FEF7DAFF4B
:103CF00006E05846FEF7D6FF00256F20307000BF63
:103D000000BF284688E72DE9F04106460D4600270A
:103D1000F748007820B1102028700020BDE8F0811D
:103D2000FEF7BCFF0746F348046884B100684068AA
:103D3000F049086005202070268100206060EEA018
:103D4000E0603846FEF7AEFF0020287004E03846F9
:103D5000FEF7A8FF722028702046DFE730B5014645
:103D60004A6808682AB9CC68606028B100254560B7
:103D700002E0106000B142608B6800259D6230BD9A
:103D8000F0B506460F46B46800202C3460602780EA
:103D9000207A00F0DF00207200206072207A2C3C34
:103DA00088B93834A078D54909780843D3490870D0
:103DB0002078D349085C6178084314F83819D04A50
:103DC0005054012500E000253046FFF7C7FF284684
:103DD000F0BD2DE9F0470446894615464FF0000A2C
:103DE00024B96E2028702046BDE8F087C0480078CE
:103DF00018B10F2028702046F6E72078052803D058
:103E0000012028702046EFE7FEF748FF82466068F1
:103E100008B1012700E00027B9F1000F03D0B9F184
:103E2000010F3CD119E08FB9B3A0E06000202070F1
:103E3000B0480068606000202081AE4804605046B1
:103E4000FEF730FF00202870002605E05046FEF700
:103E500029FF49202870264628E0D4F8048005E090
:103E600000214046FFF78CFFD8F80080B8F1000F22
:103E7000F6D1A1A0E060002020709E48006860603C
:103E8000002020819B4804605046FEF70BFF012F65
:103E900001D1FFF7AEF800202870002606E050465A
:103EA000FEF700FF07202870264600BF00BF3046FF
:103EB0009AE72DE9F04105460E461446002725B93C
:103EC0006E2020700020BDE8F0811EB90C2020700B
:103ED0000020F8E78648007818B1112020700020F3
:103EE000F1E7FEF7DBFE07462878052806D03846BE
:103EF000FEF7D8FE012020700020E4E7E86830607B
:103F00003068FEF7D5FF80463846FEF7CBFE00202E
:103F100020704046D7E72DE9F04105460E4614468D
:103F200000271DB96E202070BDE8F08116B90C2065
:103F30002070F9E76E48007810B112202070F3E786
:103F4000FEF7ACFE07462878052805D03846FEF770
:103F5000A9FE01202070E7E7EE603846FEF7A2FEDA
:103F60000020207000BFDFE7F0B51446059E654FC6
:103F70003F6897F8347047F02007DFF888C1DCF815
:103F800000C08CF834700027DFF878C1DCF800C07E
:103F90008CF835705B4F3F683E635A4F3F68B9629B
:103FA0000C828B74574F3F688F6047680F60002703
:103FB0004F60C860456805B169604160514F3F6816
:103FC00097F838204E4FBF5CDFF838C1DCF800C0EE
:103FD0009CF839C027EA0C07DFF824C10CF80270FE
:103FE0006746BF5C5FB9474F3F6897F83AC0434F99
:103FF0003F7827EA0C07DFF804C18CF80070F0BDA9
:104000002DE9F04F89B005460F4691469A46129E1B
:10401000002002902DB96E203070002009B0BDE85C
:10402000F08F3348007818B1022030700020F5E797
:104030003548007818B10D2030700020EEE7287860
:10404000052803D0012030700020E7E709F0800B3D
:10405000BBF1000F04D009F07F094FF0010801E027
:104060004FF00008FEF71AFE0290B9F1000F59D088
:10407000B9F1010F79D0B9F1020F03D0B9F1030FF3
:1040800072D120E0288900EA0704BC420FD1B8F1C0
:10409000010F02D12889A04328811A48006884852D
:1040A0000298FEF7FFFD002030702046B6E74B4631
:1040B0003A4604A92846CDF800A0FFF755FF02981C
:1040C000FEF7F0FD79E0288900EA0704F4B1B8F1C1
:1040D000010F02D12889A04328810A4800688485FD
:1040E0000298FEF7DFFD00203070204696E70000C2
:1040F00085000020740000203F000000890000209F
:104100008A00002098000020860000204B463A4696
:1041100004A92846CDF800A0FFF726FF0298FEF775
:10412000C1FD4AE0288927EA0004BC420FD1B8F15A
:10413000010F02D1288920432881C748006884855F
:104140000298FEF7AFFD00203070204666E74B4630
:104150003A4604A92846CDF800A0FFF705FF0298CB
:10416000FEF7A0FD29E000E01FE0288927EA00040F
:104170007CB1B8F1010F02D1288920432881B648CB
:10418000006884850298FEF78DFD0020307020467F
:1041900044E74B463A4604A92846CDF800A0FFF76D
:1041A000E3FE0298FEF77EFD07E00298FEF77AFD37
:1041B00000246F203070204630E700BFFEF719FF63
:1041C000FEF76CFD0290A448006890F8350020B31B
:1041D000A148006890F83500039000209E490968C6
:1041E00081F8350004A8FFF7B9FD00209A49096855
:1041F00081F834000298FEF755FD00240398012849
:1042000005D0022802D10E20307003E000BF0A2042
:10421000307000BF00BF204600E78F480068848DE3
:10422000B8F1010F1ED1B9F1000F0ED0B9F1010F95
:104230000CD0B9F1020F03D0B9F1030F0AD100E09D
:1042400000BF2889A04328810BE000BF28892043B4
:10425000288106E00298FEF725FD6F2030700020CF
:10426000DCE600BF0298FEF71DFD002030702046FE
:10427000D4E670B50025FEF711FD054676480068C6
:10428000848D2846FEF70EFD204670BD2DE9FC5FAB
:104290000446894692461E460020009024B96E20AE
:1042A00030700020BDE8FC9F2078052803D0012055
:1042B00030700020F6E7FEF7F1FC0090BAF1000F35
:1042C00003D0BAF1010F0AD104E0208920EA0900E5
:1042D00020810BE0208940EA0900208106E0009857
:1042E000FEF7E0FC712030700020DBE700BF4FF0EC
:1042F000000B656855E0A87C40B3012838D002283F
:1043000002D0032844D111E02089298A00EA01075C
:10431000288AB84209D139462846FFF731FD804640
:10432000B8F1010F01D14FF0010B38E02089298A43
:1043300000EA01074FB139462846FFF721FD8046C4
:10434000B8F1010F01D14FF0010B28E0288A218933
:1043500020EA0107288AB84209D139462846FFF7E2
:104360000FFD8046B8F1010F01D14FF0010B16E0AF
:10437000288A218920EA01074FB139462846FFF7EC
:10438000FFFC8046B8F1010F01D14FF0010B06E0B0
:104390000098FEF787FC6F203070002082E700BF96
:1043A0002D68002DA7D10098FEF77CFCBBF1010F12
:1043B00001D1FEF71EFEFEF771FC009020890190EE
:1043C0000098FEF76FFC0020307001986AE72DE935
:1043D000F04104460D46002724B96E2028700020C5
:1043E000BDE8F0812078052803D001202870002046
:1043F000F6E7FEF753FC074626893846FEF752FCDF
:10440000002028703046EBE72DE9F0415021134899
:10441000FFF775F800250EE0681C86B20F4800EB28
:10442000051400EB0617002020706760AFF23830EB
:10443000E060681C85B2042DEED3084800EB05143B
:10444000002020706060AFF25030E0600348044903
:104450000860BDE8F081000098000020943800203A
:10446000740000202DE9FC5F05460F4691461E466C
:104470000020009025B9622030700020BDE8FC9F2C
:1044800005F0030018B1622030700020F6E7022F1B
:1044900003D25B2030700020F0E7B9F1040F03D2A3
:1044A0005C2030700020E9E7FEF7F8FB00907F48C1
:1044B0000468006820B17D48006840687B49086056
:1044C0000098FEF7EFFB1CB95A2030700020D5E7AA
:1044D000AA46A846781E01904FF0000B05E0C8449C
:1044E000CAF80080C2460BF1010B01988345F6D350
:1044F0000020CAF80000256065602761E760C4F805
:10450000089030702046B9E72DE9F04104460D4689
:10451000002724B9602028700020BDE8F081FEF754
:10452000BDFB0746206960B166683068606020693D
:10453000401E20613846FEF7B5FB0020287030464B
:10454000EBE73846FEF7AEFB5D2028700020E4E77D
:104550002DE9F04106460D461446002726B9602095
:1045600020700020BDE8F0811DB90C2020700020D3
:10457000F8E74F48007818B1112020700020F1E7CB
:10458000FEF78CFB0746706928602868FEF790FCF0
:1045900080463846FEF786FB002020704046E1E763
:1045A0002DE9F04105460E46144600271DB960204E
:1045B0002070BDE8F08116B90C202070F9E73C4866
:1045C000007810B112202070F3E7FEF767FB074672
:1045D0006E613846FEF766FB0020207000BFE8E7FA
:1045E00070B504460D4600260CB9602070BD0DB9AB
:1045F0005F20FBE7FEF752FB0646D4E90310884232
:1046000004D33046FEF74EFB5E20EFE7606828607B
:1046100065602069401C20613046FEF743FB0020A6
:10462000E4E770B505460C4600260DB9602070BD64
:104630000CB96120FBE7FEF731FB064628682060D5
:1046400068686060A868A060E868E0602869206128
:104650003046FEF727FBD4E90301401A60610020D1
:10466000E5E770B578211348FEF749FF00240EE016
:1046700004EB44000F4901EBC005601C00EB400057
:1046800001EBC00068600CA06861601C84B2042C5F
:10469000EED304EB4400074901EBC005002068603D
:1046A00005A0686108460149086070BDAC000020A3
:1046B00085000020E44800203F0000002DE9F04183
:1046C00006460D464FF0000826B904202870002049
:1046D000BDE8F0813078022803D001202870002046
:1046E000F6E7FEF7DBFA80467468E08A78B1216964
:1046F000081D20610F68E08A401EE082A1682069E1
:10470000884201D1606820610020287002E01F20EB
:10471000287000274046FEF7C5FA3846D8E72DE94D
:10472000F04106460F464FF00008FA48007810B1F5
:104730000020BDE8F081FEF7B1FA8046F648046833
:10474000006820B1F44800684068F34908604046BA
:10475000FEF7A8FAFCB1FEF7A1FA8046EF4805681B
:10476000D5B100680068ED4908604046FEF79AFA46
:104770006E6006EB8700A860EE602E61AF820020BD
:10478000E88202202070002020816560E4A0606142
:104790002046FFF766F908E0DF4800686060DE4801
:1047A00004604046FEF77EFA00242046C1E72DE96A
:1047B000F0470446894615464FF0000A24B9042004
:1047C00028702046BDE8F0872078022803D0012019
:1047D00028702046F6E7CF48007818B10F202870DF
:1047E0002046EFE7FEF75AFA8246A07A10B14FF062
:1047F000010801E04FF00008B9F1000F03D0B9F152
:10480000010F49D121E0B8F1000F17D1C4A06061B8
:104810006668C24800683060C048066000202070AA
:10482000BD480068606000202081BB48046050469D
:10483000FEF738FA00202870002705E05046FEF702
:1048400031FA4920287027462DE005E00023042294
:1048500019462046FFF78DF8A07A0028F6D1B0A0BF
:1048600060616668AD4800683060AC480660002052
:104870002070A9480068606000202081A64804607C
:104880005046FEF70FFAB8F1010F01D1FEF7B1FB68
:1048900000202870002706E05046FEF703FA0720A4
:1048A0002870274600BF00BF38468BE770B5054625
:1048B00000260DB9042070BD2878022801D00120FF
:1048C000F9E7FEF7EBF906466C686068E06060683F
:1048D00020610020E0823046FEF7E4F90020EAE79C
:1048E0002DE9F0470646884615464FF0000926B9DF
:1048F000042028700020BDE8F0873078022803D01B
:10490000012028700020F6E78248007818B10220C4
:1049100028700020EFE78348007818B10D20287038
:104920000020E8E7FEF7BAF981467468E08A98B19A
:104930002169081D20610F68E08A401EE082A1689D
:104940002069884201D1606820614846FEF7AAF9D3
:10495000002028703846CEE77348006890F834008D
:1049600040F004007049096881F8340000206E4965
:10497000096881F835006C480068C0F8308030461E
:10498000FFF737F84846FEF78DF9FEF732FBFEF7E2
:1049900085F981466448006890F8350020B1012807
:1049A0000DD002280AD105E05F480068476A002060
:1049B00028700DE000270E20287009E000BF314666
:1049C00059480068FEF7C0FF00270A20287000BF82
:1049D00000BF00205449096881F834005249096831
:1049E00081F8350050490968C8614F490968086273
:1049F0004D49096848624846FEF754F938467AE757
:104A00002DE9F04104460F4615464FF0000824B941
:104A1000042028700020BDE8F0812078022803D00F
:104A2000012028700020F6E7FEF738F98046A07ACA
:104A300020B300267FB1012F0CD107E0022304220E
:104A400000212046FEF795FF701CC6B2A07A002810
:104A5000F4D109E000BF0223042200212046FEF722
:104A600088FF701CC6B200BF00BF4046FEF71AF9AF
:104A7000FEF7BFFA0E2028703046CCE74046FEF71E
:104A800011F90020287000BFC5E72DE9F041054667
:104A90000E46002715B90420BDE8F08128780228C9
:104AA00001D00120F8E7FEF7F9F80746A87A60B1CF
:104AB0000023042231462846FEF75BFF3846FEF706
:104AC000F1F8FEF796FA0020E6E76C68E08AA18A22
:104AD000884204DB3846FEF7E5F81E20DCE7E16893
:104AE000081DE0600E60E08A401CE082D4E90210FC
:104AF000884201D16068E0603846FEF7D3F80020B4
:104B0000CAE72DE9F04105460E46002775B9042095
:104B1000BDE8F0818500002070000020B00000207A
:104B20003F0000008600002098000020287802281E
:104B300001D00120ECE7FEF7B1F80746A87A60B192
:104B40000023042231462846FEF713FF3846FEF7BD
:104B5000A9F8FEF74EFA0020DAE76C68E08AA18A2D
:104B6000884204DB3846FEF79DF81E20D0E76168D6
:104B70002069884201D1A06820612069001F20615E
:104B800020690660E08A401CE0823846FEF78AF819
:104B90000020BDE72DE9F04105460F4616464FF0CF
:104BA000000815B90420BDE8F0812878022801D05A
:104BB0000120F8E7FEF772F88046A87AE8B106F01F
:104BC000010050B105E00023042239462846FEF7D3
:104BD000D0FEA87A0028F6D105E000230422394649
:104BE0002846FEF7C6FE4046FEF75CF806F00400D5
:104BF00008B9FEF7FEF90020D5E76C68E08AA18AC3
:104C0000884204DB4046FEF74DF81E20CBE706F055
:104C1000020058B161682069884201D1A068206112
:104C20002069001F20612069076009E0E168081D14
:104C3000E0600F60D4E90210884201D16068E06052
:104C4000E08A401CE0824046FEF72CF80020AAE7EC
:104C50002DE9F04705460C464FF0000A15B904202F
:104C6000BDE8F0870CB90920FAE72878022801D0BE
:104C70000120F5E7FEF712F88246A87A207405F1C4
:104C80000B0804F10809002705E018F8010B09F8E2
:104C9000010B781CC7B2082FF7D36E68F08A18B1E1
:104CA00030690068206001E000202060F08AA08068
:104CB000B08AE0805046FDF7F5FF0020D0E72DE9EF
:104CC000F04160211048FEF71AFC00240DE0601C42
:104CD00086B204EB44000C4901EBC00506EB46002C
:104CE00001EBC0072F60601C84B2032CEFD304EBF0
:104CF0004400054901EBC00500202860084603492F
:104D00000860BDE8F08100005C490020B000002090
:104D100070B5044600260CB9002070BD2078032829
:104D200001D00020F9E7FDF7B9FF0646258915B146
:104D30002089401E20813046FDF7B4FF2846ECE76D
:104D400070B505460026E548007808B1002070BD22
:104D5000FDF7A4FF0646E2480468006820B1E04879
:104D600000684068DE4908603046FDF79BFF4CB1A3
:104D700003202070258100206060DAA06061204659
:104D8000FEF76FFE2046E2E72DE9F047044688462D
:104D900015464FF0000924B9042028702046BDE8CC
:104DA000F0872078032803D0012028702046F6E7FA
:104DB000CA48007818B10F2028702046EFE7FDF7A9
:104DC0006DFF8146A07A08B1012700E00027B8F105
:104DD000000F03D0B8F1010F3AD119E08FB9C1A08B
:104DE000606100202070BE48006860600020208163
:104DF000BB4804604846FDF755FF00202870002698
:104E000005E04846FDF74EFF49202870264626E07B
:104E100005E00023012219462046FEF7AAFDA07AEC
:104E20000028F6D1AFA0606100202070AC48006877
:104E3000606000202081AA4804604846FDF732FFE8
:104E4000012F01D1FEF7D5F800202870002606E0DA
:104E50004846FDF727FF07202870264600BF00BF01
:104E600030469CE72DE9F04105460E4614460027E2
:104E70001DB904202070BDE8F0812878032802D0F5
:104E800001202070F7E79548007810B102202070CB
:104E9000F1E79548007810B10D202070EBE7FDF7A1
:104EA000FDFE0746288940B12889401E28813846E2
:104EB000FDF7F8FE00202070DDE78C48006890F8D0
:104EC000340040F001008949096881F8340000206D
:104ED0008649096881F835008448006806632846D9
:104EE000FEF787FD3846FDF7DDFEFEF782F8FDF799
:104EF000D5FE07467D48006890F8350020B10128AE
:104F000009D0022806D102E0002020700BE00E201C
:104F1000207008E000BF294674480068FEF714FDC1
:104F20000A20207000BF00BF00207049096881F886
:104F300034006E49096881F835006C490968C86118
:104F40006A49096808623846FDF7ACFE00BF92E77F
:104F50002DE9F04104460F4615464FF0000824B9EC
:104F6000042028700020BDE8F0812078032803D0B9
:104F7000012028700020F6E7FDF790FE8046A07A19
:104F800020B300267FB1012F0CD107E002230122BC
:104F900000212046FEF7EDFC701CC6B2A07A002866
:104FA000F4D109E000BF0223012200212046FEF7D0
:104FB000E0FC701CC6B200BF00BF4046FDF772FEA9
:104FC000FEF717F80E2028703046CCE74046FDF774
:104FD00069FE0020287000BFC5E770B504460025B3
:104FE0000CB9042070BD2078032801D00120F9E716
:104FF000FDF754FE0546A07A60B100230122194650
:105000002046FEF7B6FC2846FDF74CFEFDF7F1FF03
:105010000020E7E720894FF6FF71884207D22089F8
:10502000401C20812846FDF73DFE0020DAE7284697
:10503000FDF738FE3320D5E72DE9F04704460D464D
:105040004FF0000914B90420BDE8F0870DB909201C
:10505000FAE72078032801D00120F5E7FDF71EFECE
:105060008146A07AA87204F10B0705F10208002618
:1050700005E017F8010B08F8010B701CC6B2082EEA
:10508000F7D3208928804846FDF70CFE0020DBE797
:105090002DE9F04104460E46154600271CB90420B0
:1050A0002870BDE8F0812078032802D00120287004
:1050B000F7E7FDF7F3FD074600202870208908B1C7
:1050C000268105E0A07A08B9268101E049202870F0
:1050D0003846FDF7E7FD00BFE3E70000850000204C
:1050E000700000203F000000860000209800002093
:1050F0002DE9F04F85B08146884600200090B9F137
:105100003F0F06D3B9F1FF0F03D02A2005B0BDE849
:10511000F08FB8F13F0F01D32A20F7E7FDF7BEFD6E
:105120000090F94850F8280020B10098FDF7BAFD2A
:105130002820EBE7B9F1FF0F03D1F448006890F89D
:105140003690F14850F8295025B90098FDF7AAFD8E
:105150002920DBE7012D04D10098FDF7A3FD4320B2
:10516000D4E74FEAE80708F0070003900120B840B1
:1051700000F0FF0A01210398814001F0FF0B00209D
:10518000E14941F82900084640F8285015F8386FE1
:10519000A87802906878383D0190DD48815D0198DB
:1051A0000140D1B1DA48805D01998843D8498855DA
:1051B0000846805D28B9D748007802998843D549C8
:1051C0000870D448007840EA0A00D2490870D048F4
:1051D000C05D40EA0B00CE49C855EC69D4B104F17A
:1051E0000B00805D0199884304F10B018855084646
:1051F000805D18B9A07A02998843A072A07A40EA2B
:105200000A00A07204F10B00C05D40EA0B0004F13B
:105210000B01C855286A30B3286A049004980468C2
:105220001FE004F10B00805D0199884304F10B013C
:1052300088550846805D18B9A07A02998843A07203
:10524000A07A40EA0A00A07204F10B00C05D40EAB7
:105250000B0004F10B01C8550498001D049004983C
:105260000468002CDDD185F8368085F83870039805
:1052700085F8370085F83AA085F839B00098FDF731
:1052800011FDA5480078012801D1FDF7B2FE0020EC
:105290003CE72DE9FE4F06460F4690461C464FF070
:1052A00000093F2C02D92A20BDE8FE8FFDF7F6FC4D
:1052B00081469A48007820B14846FDF7F3FC3C202F
:1052C000F2E7914850F8240060BB01208E4941F874
:1052D00024004846FDF7E6FC0023424639463046A6
:1052E000FDF7A1FB82460020009001900346024694
:1052F000514602902046FEF7CCFB054635B986485C
:10530000007801280CD1FDF774FE09E0FDF7C6FC1A
:10531000814600207C4941F824004846FDF7C2FC44
:105320002846C1E74846FDF7BDFC2820BCE702F04F
:10533000010343B102F002032BB102E0491E002336
:1053400008C00029FAD170472DE9F04F85B0814699
:105350008A4693461C46DDE90F78129D0020039093
:105360003F2C03D92A2005B0BDE8F08FFDF796FC4D
:1053700003906A48007820B10398FDF793FC3C2025
:10538000F1E7614850F8240088BB01205E4941F8EC
:1053900024000398FDF786FC2A4641463846FFF76D
:1053A000C6FF2B465A4651464846FDF73CFB049043
:1053B0001198CDE9008002953A4620460E9B04994B
:1053C000FEF767FB064636B95348007801280CD132
:1053D000FDF70FFE09E0FDF761FC039000204A494C
:1053E00041F824000398FDF75DFC3046BBE7FFE77A
:1053F0000398FDF757FC2820B5E72DE9F041054655
:1054000000274648007810B14020BDE8F0813F2DCC
:1054100001D13E20F9E73F2D03D3FF2D01D02A20F3
:10542000F3E7FDF73BFC0746FF2D03D13748006843
:1054300090F83650344850F8254024B93846FDF7E6
:1054400031FC4320E1E7012C04D13846FDF72AFC6A
:105450003D20DAE714F8380F2D49085C617888435D
:1054600021782B4A505414F838091146085C30B999
:1054700094F83A1027480078884326490870E06974
:1054800018B12046E169FEF75FFA206A18B120469C
:10549000216AFDF784FDA66A16B13046FEF75EFC70
:1054A0000020206384F8340084F835001C4800781C
:1054B000FF2804D21A480078401C19490870384661
:1054C000FDF7F0FBFEF73FFAFDF7E8FB074614484F
:1054D000007820B112480078401E1149087020461B
:1054E000FDF793FA0F480078401E0E49087000201F
:1054F000054941F82500A069C0B9002061698861AB
:1055000009496069086017E0E43C00209800002029
:105510008A000020890000209200002085000020E1
:105520008600002093000020A4000020D4E905019B
:105530004861D4E905108861F74800686061F64861
:105540000460F6A020653846FDF7ACFBF44800780F
:10555000012801D1FDF74DFD002056E72DE9F0416E
:10556000044600273F2C02D13E20BDE8F0813F2CAD
:1055700003D3FF2C01D02A20F7E7FF2C0BD1FDF736
:105580008DFB0746E748006890F83B603846FDF71A
:1055900089FB3046E9E7FDF781FB0746E24850F812
:1055A000245025B93846FDF77DFB4320DDE7012D6A
:1055B00004D13846FDF776FB3D20D6E73F2085F83D
:1055C0003B003846FDF76EFB0020CEE72DE9F047A3
:1055D00005460E4614464FF000083F2D06D9FF2D14
:1055E00004D02A2020700020BDE8F0871EB90C20CE
:1055F00020700020F8E7CD48007818B11120207005
:105600000020F1E7FDF74AFB8046FF2D03D1C54896
:10561000006890F83650C44850F8257037B94046B5
:10562000FDF740FB432020700020DDE7012F06D16D
:105630004046FDF737FB432020700020D4E7386D4B
:1056400030603068FDF734FC81464046FDF72AFBA8
:10565000002020704846C7E72DE9F04105460F4677
:1056600014464FF000083F2D05D9FF2D03D02A2006
:105670002070BDE8F08117B90C202070F9E7AB4825
:10568000007810B112202070F3E7FDF707FB804689
:10569000FF2D03D1A348006890F83650A24850F877
:1056A00025602EB94046FDF7FDFA43202070E0E763
:1056B000012E05D14046FDF7F5FA43202070D8E7CA
:1056C00037654046FDF7EEFA0020207000BFD0E7B6
:1056D00070B5054600263F2D01D32A2070BDFDF789
:1056E000DDFA0646904850F8254024B93046FDF7CB
:1056F000D9FA4620F2E7012C04D13046FDF7D2FA60
:105700004320EBE794F8340000F0080060B314F88D
:10571000340F00F0F700207014F83409F8B9206B4A
:10572000C8B93834A078824909780843804908709C
:1057300020788049085C6178084314F838197D4A5C
:1057400050543046FDF7AEFA75480078012809D16B
:10575000FDF74FFC06E03046FDF7A4FA02E03046C4
:10576000FDF7A0FA0020B9E73046FDF79BFA442088
:10577000B4E72DE9F04706460C464FF0000A3F2EED
:1057800004D9FF2E02D02A20BDE8F0870CB90920E9
:10579000FAE7002020606060FDF780FA8246FF2E65
:1057A00003D16048006890F836605F4850F8265092
:1057B00025B95046FDF776FA4320E5E7012D04D1DF
:1057C0005046FDF76FFA4320DEE7287C00F0010029
:1057D00020B95046FDF766FA4520D5E70027D5F8F1
:1057E0000C90D5F808805046FDF75CFA00E07F1C6D
:1057F00058F8041B0029FAD0B8002060A9EB070074
:10580000800060600020BFE72DE9F04105464FF0C1
:1058100000083F2D02D14720BDE8F0813F2D03D382
:10582000FF2D01D02A20F7E7FDF738FA8046FF2D3B
:1058300005D13C48006890F83650012608E0394808
:10584000006890F83600A84201D1012600E0002649
:10585000354850F8254024B94046FDF723FA482042
:10586000DAE7012C04D14046FDF71CFA4320D3E7C8
:1058700094F838702F48C05D94F8391088432D494A
:10588000C8550846C05D30B994F83A1028480078E9
:1058900088432749087094F8340040F0080084F8E1
:1058A00034004046FDF7FEF9012E01D1FDF7A1FBC2
:1058B0000020B1E72DE9F04104460E4600273F2CB9
:1058C00004D9FF2C02D02A20BDE8F0810EB90920AE
:1058D000FAE7FDF7E3F90746FF2C03D1114800680A
:1058E00090F83640104850F8245025B93846FDF756
:1058F000D9F92920E8E7012D04D13846FDF7D2F97E
:105900004320E1E7582229463046FEF7B8F83846EA
:10591000FDF7C8F90020D7E79C0000203F000000F9
:105920009200002098000020E43C00208500002028
:10593000890000208A0000202DE9F04704460E4629
:1059400015464FF000093F2C06D3FF2C04D02A2027
:1059500028700020BDE8F0871EB1082028700020C4
:10596000F8E7FDF79BF98146FF2C02D12148076833
:1059700002E0214850F8247007F1540050F82680C6
:105980004846FDF78FF9002028704046E2E72DE9F0
:10599000F04704460E4690461D464FF000093F2C46
:1059A00005D3FF2C03D02A202870BDE8F08716B15C
:1059B00008202870F9E7FDF771F98146FF2C02D124
:1059C0000C48076802E00C4850F8247007F15400B6
:1059D00040F826804846FDF765F90020287000BF92
:1059E000E3E710B50348006800F062FCFF20FFF712
:1059F00004FD10BD98000020E43C002070B5054671
:105A000000266C48007800B170BD6B48007800B18A
:105A1000FAE71DB3FDF742F906466848006890F8BA
:105A200038406748005D6549096891F83910884336
:105A3000634908550846005D40B96048006890F821
:105A40003A106048007888435E4908705B480068F7
:105A500005633046FDF726F9FDF7CBFA00BFD3E723
:105A60002DE9F04107460C4615461E465148007880
:105A700010B15520BDE8F0814F48007808B13220C0
:105A8000F8E727B91CB915B90EB95420F2E73B2C39
:105A900001D95120EEE73B2D01D95220EAE7B6F5B6
:105AA0007A7F01D35320E5E7701D642148434FF40A
:105AB0007A71B0FBF1F14FF461607843C4EB0412EA
:105AC00000EB8200284400EBC00202EB001001EB67
:105AD00080084046FFF792FF0020CBE770B50546EF
